:1000000026C040C03FC03EC03DC03CC03BC03AC01F
:1000100039C074C037C036C035C034C033C032C0F8
:1000200031C0476F6F640D0A000D0A4156522041DE
:100030005474696E793834202D2D2044656D6F20FD
:100040004170706C69636174696F6E0D0A001124F0
:100050001FBECFE5D2E0DEBFCDBF10E0A0E6B0E02E
:10006000ECEFF2E002C005900D92A436B107D9F78B
:1000700010E0A4E6B0E001C01D92AA39B107E1F793
:100080000ED03AC1BDCFBC0180E690E01DD121E089
:1000900030E0892B11F020E030E0C9010895CF93C2
:1000A000DF93CDB7DEB728970FB6F894DEBF0FBE4B
:1000B000CDBFB3D0789489E290E0F8D010E0D7D0EB
:1000C0008823E9F3C0D0E12EF12C8D3089F4A7010B
:1000D0004F5F5F4F62E970E0CE010196FED0B7013D
:1000E000CE010196D0DF892B49F382E290E0E5CF83
:1000F000F701EE56FF4F80831F5FE1CF1F920F92F3
:100100000FB60F9211248F939F93EF93FF938091DB
:100110006D00813019F580916C008150E9F4809177
:10012000690090916A0080FF02C0DB9A01C0DB98F1
:100130008091690090916A009695879590936A00E6
:100140008093690080916B00815080936B008111D6
:1001500002C010926D0083E080936C0080916F006C
:10016000811152C0809168008823E9F08091670076
:10017000815080936700811147C0109268001092EF
:100180006E00E0917100F0E080916600EE58FF4F44
:100190008083809171008F5F809371008032A0F125
:1001A0001092710031C080916E00811110C0CA9907
:1001B0002BC081E080936E001092660094E09093D3
:1001C000670098E090936500809364001DC0809163
:1001D00067008150B9F480916400CA9B05C090917A
:1001E0006600982B90936600880F8093640080913E
:1001F0006500815080936500811103C081E0809388
:10020000680083E080936700FF91EF919F918F9149
:100210000F900FBE0F901F90189510926D001092C6
:100220006E0010926F00DB9AD39AD2989FB7F89421
:1002300081E286BF82E080BF83BF89B7826089BFC9
:1002400012BE9FBF08959091700080917100981721
:10025000E1F3E92FF0E0EE58FF4F80819F5F90328D
:1002600018F49093700008951092700008952091F2
:10027000710081E090917000291301C080E0089521
:1002800090916D009130E1F393E090936C009AE0CF
:1002900090936B0090E0880F991F926090936A0092
:1002A0008093690081E080936D000895CF93DF9380
:1002B000FC018491EF012196882319F0E1DFFE0112
:1002C000F8CFDF91CF910895FB01DC018D91019072
:1002D00080190110D9F3990B0895FB01DC014150FD
:1002E000504048F001900D920020C9F701C01D92C6
:0C02F00041505040E0F70895F894FFCF13
:0402FC0041543A002F
:00000001FF
